:100000000C942A000C94D2060C9447000C944700E0
:100010000C9447000C9447000C9483070C94470001
:100020000C9447000C945E070C9447000C9417073F
:100030000C9447000C9435080C9447000C9421084C
:100040000C94F9060C9447000C9447000C9447005C
:100050000C94470011241FBECFE5D8E0DEBFCDBF12
:1000600010E0A0E6B0E0E8EBF5E102C005900D92EB
:10007000AA3AB107D9F720E0AAEAB0E001C01D9280
:10008000A33EB207E1F70E948D010C94DA0A0C94AA
:1000900000000E943A050E94BA032FEF81EE94E01F
:1000A000215080409040E1F700C000000E94BE0354
:1000B0002FEF81EE94E0215080409040E1F700C0A6
:1000C00000000E94BA032FEF81EE94E0215080409F
:1000D0009040E1F700C000000E94BE030E943E0570
:1000E00008954F925F926F927F92AF92BF92CF929C
:1000F000DF92EF92FF920F931F93CF93DF93CDB7D1
:10010000DEB729013A019B01AC01241935094609E2
:10011000570989899A89AB89BC89BC01CD016A19C3
:100120007B098C099D090E946F0AA8019701241977
:100130003509460957090E94A10AC601B501620F97
:10014000731F841F951FDF91CF911F910F91FF9017
:10015000EF90DF90CF90BF90AF907F906F905F90C7
:100160004F9008954F925F926F927F928F929F92DD
:10017000AF92BF92CF92DF92EF92FF920F931F93B5
:10018000CF93DF9300D000D000D0CDB7DEB72B01E6
:100190003C014A013E832D83E982FA820B831C8352
:1001A000C601B5010E9450092D813E817901330FAE
:1001B000000B110B9401990C440B550B9F938F93DB
:1001C0007F936F93A980BA80CB80DC80C301B2019A
:1001D0000E9471000F900F900F900F900E9488095D
:1001E00026960FB6F894DEBF0FBECDBFDF91CF913C
:1001F0001F910F91FF90EF90DF90CF90BF90AF9045
:100200009F908F907F906F905F904F9008950F9385
:100210001F938B019C010F551109210931090A30E7
:1002200011052105310528F4695F7F4F8F4F9F4FDE
:1002300071C08B019C0103571109210931090A3052
:1002400011052105310528F46A5F7F4F8F4F9F4FBD
:1002500061C08B019C010D571109210931090A3038
:1002600011052105310528F46B5F7F4F8F4F9F4F9C
:1002700051C08B019C010758110921093109043132
:1002800011052105310528F46C5F7F4F8F4F9F4F7B
:1002900041C08B019C010B5911092109310904311D
:1002A00011052105310528F46D5F7F4F8F4F9F4F5A
:1002B00031C08B019C010F5A1109210931090A3003
:1002C00011052105310528F46E5F7F4F8F4F9F4F39
:1002D00021C0643C71058105910528F06E5F7F4F58
:1002E0008F4F9F4F17C0673E71058105910528F01C
:1002F00062507109810991090DC0613F7105810545
:10030000910528F0655071098109910903C060E0E9
:1003100070E0CB011F910F910895CF93DF9300D030
:1003200000D000D0CDB7DEB70E945A0881E00E940D
:10033000C6060E948B060E9498060E94D5050E9460
:1003400020040E94A4030E94AD030E94B6030E94F1
:1003500030050E9442052FEF33E03E832D83198242
:100360001A821B821C82412C512C3201312C912C7F
:10037000812C4EC083E00E94ED056091CD0070910C
:10038000CE008091CF009091D0000F2EFCEFAF2EC9
:10039000FDEEBF2ECC24C394F5E4DF2EF02D12EE3B
:1003A000E12E17EFF12E0FEF1FEF2D813E8140E080
:1003B00050E00E94B2000E9450099B01AC010E94D3
:1003C0006F0A29813A814B815C81260F371F481FB4
:1003D000591F29833A834B835C833FEF431A530AA7
:1003E000630A730A8FE99FE00197F1F700C00000EC
:1003F0000FC019821A821B821C82412C512C32019F
:1004000007C019821A821B821C82412C512C320196
:100410008091D1009091D200A091D300B091D400EE
:10042000892B8A2B8B2B09F4A5CF69817A818B814B
:100430009C81A30192010E947F0A69017A01C70190
:10044000B6010E9486090E941A0A0E9457092B01D0
:100450003C011092D1001092D2001092D300109261
:10046000D4001E821D821DC087E00E94ED05809190
:10047000CD009091CE00A091CF00B091D0002D8101
:100480003E81A90160E070E0481759076A077B07C1
:1004900010F49E838D838FE99FE00197F1F700C0F0
:1004A00000008091D1009091D200A091D300B09132
:1004B000D400892B8A2B8B2BB9F22D813E81B90177
:1004C00080E090E00E9486092AE03AEB4DE850E493
:1004D0000E94DE080E9450090E9407016B017C0106
:1004E0001092D1001092D2001092D3001092D4003A
:1004F0006D3871058105910598F441E0341669F075
:100500000E9449005FEF83ED90E35150804090409E
:10051000E1F700C00000332433940E94570592C0D5
:10052000DC01CB018D589109A109B1094497A105BE
:10053000B10598F421E0321669F00E9449003FEFBE
:1005400043ED50E3315040405040E1F700C000001F
:10055000332433940E946C0575C0D701C601815ABB
:100560009109A109B1094497A105B105A0F482E060
:10057000381671F00E9449009FEF23ED30E391504F
:1005800020403040E1F700C000006894332431F887
:100590000E94810557C0D701C601855B9109A10959
:1005A000B1094497A105B105A0F442E0341671F0F9
:1005B0000E9449005FEF83ED90E3515080409040EE
:1005C000E1F700C000006894332431F80E949605DA
:1005D00039C0D701C601895C9109A109B1094497C5
:1005E000A105B105A8F423E0321679F00E94490074
:1005F0003FEF43ED50E3315040405040E1F700C041
:1006000000000F2EF3E03F2EF02D0E94AB051AC024
:100610008DEDC816D104E104F104A0F093E0391681
:1006200079F00E9449002FEF33ED40E32150304034
:100630004040E1F700C000000F2EF3E03F2EF02D08
:100640000E94C0050E94A803811112C00E942C05BF
:100650000E94BA0383948FE39CE90197F1F700C0ED
:10066000000092E0891201C0812C0E94BE03912CEF
:100670000E94B10381110EC00E942C050E94BA0392
:100680008FE39CE90197F1F700C000000E94BE03D0
:10069000992493940E942C0591103EC0882021F04B
:1006A00091E08916E9F0A5CE60E080E00E94140593
:1006B00088E890E00E949404C701B6010E94A70454
:1006C00069E081E00E941405C301B2010E94A70401
:1006D00019821A821B821C82412C512C320198CE25
:1006E00062E080E00E94140582E990E00E94940498
:1006F00066E081E00E941405C301B2010E94A704D4
:100700008EE990E00E94940419821A821B821C8256
:10071000412C512C32017CCE21E0921272CE60E04D
:1007200080E00E94140581EA90E00E94940460E059
:1007300070E0CB010E94A70419821A821B821C82DE
:10074000412C512C320164CE81B38B7F81BB089543
:1007500080B382FB882780F9089581B3877F81BBAE
:10076000089580B383FB882780F9089584B380625D
:1007700084BB089585B3806285BB089585B38F7D62
:1007800085BB0895CF93C82F60E081E00E940406E6
:1007900060E082E00E940406C4FB662760F986E1FF
:1007A0000E940406C5FB662760F984E00E940406E7
:1007B000C6FB662760F985E00E9404066C2F661F61
:1007C0006627661F86E00E94040661E082E00E94C0
:1007D00004068FE99FE00197F1F700C0000060E098
:1007E00082E00E9404066C2F617086E10E9404067C
:1007F000C1FB662760F984E00E940406C2FB6627FD
:1008000060F985E00E940406C3FB662760F986E074
:100810000E94040661E082E00E9404068FE99FE0E6
:100820000197F1F700C0000060E082E00E9404063A
:100830008FE19EE40197F1F700C00000CF91089589
:1008400083E30E94C20382E30E94C20388E20E9403
:10085000C2038CE00E94C20381E00E94C20386E0D2
:100860000E94C20382E00E94C2030895CF93C82F62
:1008700061E081E00E94040660E082E00E940406DC
:10088000C4FB662760F986E10E940406C5FB662763
:1008900060F984E00E940406C6FB662760F985E0E3
:1008A0000E9404066C2F661F6627661F86E00E9462
:1008B000040661E082E00E9404068FE99FE0019750
:1008C000F1F700C0000060E082E00E9404066C2F97
:1008D000617086E10E940406C1FB662760F984E02E
:1008E0000E940406C2FB662760F985E00E940406A8
:1008F000C3FB662760F986E00E94040661E082E09F
:100900000E9404068FE99FE00197F1F700C0000004
:1009100060E082E00E9404068FE19EE40197F1F717
:1009200000C00000CF9108950F931F93CF938C01C7
:10093000C0E003C00E943604CF5FF801EC0FF11D48
:1009400080818111F7CFCF911F910F9108958F92E0
:100950009F92AF92BF92CF92DF92EF92FF926B0184
:100960007C01672B682B692B19F480E30E94360405
:10097000FF205CF4F094E094D094C094C11CD11C8E
:10098000E11CF11C8DE20E94360461E070E080E021
:1009900090E024C0DC01CB01880F991FAA1FBB1F68
:1009A0004C015D01880C991CAA1CBB1C880C991C6D
:1009B000AA1CBB1C880E991EAA1EBB1EC701B6012D
:1009C0002AE030E040E050E00E94A10A680D791D65
:1009D0008A1D9B1DC22ED32EE42EF52EC114D104E8
:1009E000E104F104B9F612C02AE030E040E050E042
:1009F0000E947F0AC22ED32EE42EF52E80E3860FAE
:100A00000E9436046C2D7D2D8E2D9F2D6130710539
:100A10008105910549F7FF90EF90DF90CF90BF904F
:100A2000AF909F908F900895CF93DF9300D0CDB774
:100A3000DEB790E8998390EC9A83E1E0F0E0EC0F68
:100A4000FD1FE80FF11D8081860F0E94C2030F90E9
:100A50000F90DF91CF91089581E00E94C203089525
:100A600084B3816084BB84B3826084BB84B38460BC
:100A700084BB089585B3846085BB089585B38B7F5F
:100A800085BB089561E089E00E94040661E08AE088
:100A90000E94040661E08BE00E94040661E08EE1A2
:100AA0000E94040661E08FE10E940406089560E060
:100AB00089E00E94040661E08AE00E94040661E089
:100AC0008BE00E94040661E08EE10E94040661E072
:100AD0008FE10E940406089561E089E00E94040607
:100AE00060E08AE00E94040661E08BE00E94040658
:100AF00061E08EE10E94040661E08FE10E9404063D
:100B0000089561E089E00E94040661E08AE00E94A5
:100B1000040660E08BE00E94040661E08EE10E9422
:100B2000040661E08FE10E940406089561E089E017
:100B30000E94040661E08AE00E94040661E08BE006
:100B40000E94040660E08EE10E94040661E08FE1ED
:100B50000E940406089561E089E00E94040661E0B5
:100B60008AE00E94040661E08BE00E94040661E0D6
:100B70008EE10E94040660E08FE10E940406089561
:100B800061E089E00E94040661E08AE00E940406B8
:100B900061E08BE00E94040661E08EE10E940406A1
:100BA00060E08FE10E940406089587B1806487B9F0
:100BB00087B18F7787B986B1806286B980B780BFE9
:100BC00086B1876086B986B1877F86B987B18F7D08
:100BD00087B986B1806886B9089597B1987F877084
:100BE000892B87B986B1806486B9349BFECF84B1E6
:100BF00095B1A0E0B0E08093CD009093CE00A0939B
:100C0000CF00B093D0000895982F9695969596951D
:100C10008770662309F43FC0613009F07BC09130D2
:100C200099F028F09230E9F0933041F108954BB3F8
:100C300021E030E0B90102C0660F771F8A95E2F724
:100C4000CB01842B8BBB089548B321E030E0B90180
:100C500002C0660F771F8A95E2F7CB01842B88BB11
:100C6000089545B321E030E0B90102C0660F771F57
:100C70008A95E2F7CB01842B85BB089542B321E02E
:100C800030E0B90102C0660F771F8A95E2F7CB0109
:100C9000842B82BB08959130A1F028F09230F9F0B6
:100CA000933059F108954BB321E030E0B90102C00F
:100CB000660F771F8A95E2F7CB01809584238BBB63
:100CC000089548B321E030E0B90102C0660F771FF4
:100CD0008A95E2F7CB018095842388BB089545B3BC
:100CE00021E030E0B90102C0660F771F8A95E2F774
:100CF000CB018095842385BB089542B321E030E089
:100D0000B90102C0660F771F8A95E2F7CB01809583
:100D1000842382BB089583B7877F83BF83B78F7B8C
:100D200083BF89B7816089BF83B7856083BF08951A
:100D300082E190E0A0E0B0E08093AE009093AF003D
:100D4000A093B000B093B10081EB90E0A0E0B0E0E0
:100D50008093AA009093AB00A093AC00B093AD0039
:100D600081EB82BF8091AE009091AF00A091B00066
:100D7000B091B1000196A11DB11D8093AE0090937A
:100D8000AF00A093B000B093B1000895882331F074
:100D9000813039F48FB780688FBF08958FB78F7710
:100DA0008FBF08951F920F920FB60F9211242F93A9
:100DB0003F934F935F936F937F938F939F93AF93E3
:100DC000BF93EF93FF93E091C800F091C90009959C
:100DD000FF91EF91BF91AF919F918F917F916F9113
:100DE0005F914F913F912F910F900FBE0F901F90E9
:100DF00018951F920F920FB60F9211248F939F9305
:100E0000AF93BF9384B195B1A0E0B0E08093CD00E3
:100E10009093CE00A093CF00B093D000BF91AF913C
:100E20009F918F910F900FBE0F901F9018951F925A
:100E30000F920FB60F9211244F935F936F937F938E
:100E40008F939F93AF93BF938091C3008F5F8093E5
:100E5000C30090E0A0E0B0E04091AE005091AF0040
:100E60006091B0007091B10084179507A607B7078D
:100E7000C1F48091D1009091D200A091D300B091A3
:100E8000D4000196A11DB11D8093D1009093D20092
:100E9000A093D300B093D4001092C3008091AA0015
:100EA00082BFBF91AF919F918F917F916F915F9121
:100EB0004F910F900FBE0F901F9018951F920F9299
:100EC0000FB60F9211248F939F93AF93BF9380918E
:100ED000C4009091C500A091C600B091C7000196D2
:100EE000A11DB11D8093C4009093C500A093C600BE
:100EF000B093C700BF91AF919F918F910F900FBE9C
:100F00000F901F9018951F920F920FB60F921124F9
:100F10002F933F938F939F93AF93BF938091B20092
:100F20009091B300A091B400B091B5000196A11DBD
:100F3000B11D8093B2009093B300A093B400B0931E
:100F4000B5008091B2009091B300A091B400B0912F
:100F5000B5000197A105B105C1F486B597B5A0E02C
:100F6000B0E08093BE009093BF00A093C000B09308
:100F7000C1001092C4001092C5001092C6001092D9
:100F8000C7008EB58F7B8EBD51C08091B20090910D
:100F9000B300A091B400B091B5000297A105B105CE
:100FA000E9F426B537B58091C4009091C500A091B1
:100FB000C600B091C700DC0199278827820F931FD4
:100FC000A11DB11D8093BA009093BB00A093BC00FB
:100FD000B093BD008EB580648EBD28C08091B200F4
:100FE0009091B300A091B400B091B5000397A10512
:100FF000B105E1F426B537B58091C4009091C500E4
:10100000A091C600B091C700DC0199278827820F04
:10101000931FA11DB11D8093B6009093B700A093BC
:10102000B800B093B90089B78F7D89BFBF91AF91E8
:101030009F918F913F912F910F900FBE0F901F9016
:1010400018951F920F920FB60F9211248F938091D3
:10105000CB008F5F8093CB0081E08093CC008F9199
:101060000F900FBE0F901F9018951F920F920FB602
:101070000F9211248F939F93EF93FF938091C2005F
:10108000E82FF0E09CB1E452FF4F90838F5F809394
:10109000C2008CB18E3229F41092C20081E080939C
:1010A000CA00FF91EF919F918F910F900FBE0F900B
:1010B0001F90189590E07EC0E92FF0E0EE0FFF1F23
:1010C000E05AFF4F8081282F269526952695877018
:1010D00031813323B9F1313009F06BC0213089F00F
:1010E00028F02230C9F0233011F163C04AB321E067
:1010F00030E002C0220F331F8A95E2F7242B2ABB6F
:1011000058C047B321E030E002C0220F331F8A9558
:10111000E2F7242B27BB4DC044B321E030E002C0EE
:10112000220F331F8A95E2F7242B24BB42C041B320
:1011300021E030E002C0220F331F8A95E2F7242B12
:1011400021BB37C0213091F028F02230D9F0233074
:1011500029F12FC04AB321E030E002C0220F331F33
:101160008A95E2F7209524232ABB23C047B321E0C8
:1011700030E002C0220F331F8A95E2F72095242326
:1011800027BB17C044B321E030E002C0220F331F59
:101190008A95E2F72095242324BB0BC041B321E0BC
:1011A00030E002C0220F331F8A95E2F720952423F6
:1011B00021BB9F5F943108F47FCF08950E94F2080D
:1011C0000C94DA090E94D30958F00E94CC0940F02F
:1011D00029F45F3F29F00C94C30951110C940E0AB5
:1011E0000C94C9090E94EB0968F39923B1F35523C4
:1011F00091F3951B550BBB27AA276217730784072A
:1012000038F09F5F5F4F220F331F441FAA1FA9F3BF
:1012100035D00E2E3AF0E0E832D091505040E695AD
:10122000001CCAF72BD0FE2F29D0660F771F881F0E
:10123000BB1F261737074807AB07B0E809F0BB0B01
:10124000802DBF01FF2793585F4F3AF09E3F510515
:1012500078F00C94C3090C940E0A5F3FE4F3983EB7
:10126000D4F3869577956795B795F7959F5FC9F7FE
:10127000880F911D9695879597F90895E1E0660F7F
:10128000771F881FBB1F621773078407BA0720F0F8
:10129000621B730B840BBA0BEE1F88F7E095089561
:1012A0000E9457096894B1110C940E0A08950E9487
:1012B000F30988F09F5798F0B92F9927B751B0F0EC
:1012C000E1F0660F771F881F991F1AF0BA95C9F7CA
:1012D00014C0B13091F00E940D0AB1E008950C9451
:1012E0000D0A672F782F8827B85F39F0B93FCCF304
:1012F000869577956795B395D9F73EF49095809547
:10130000709561957F4F8F4F9F4F0895E89409C066
:1013100097FB3EF490958095709561957F4F8F4F28
:101320009F4F9923A9F0F92F96E9BB279395F6953E
:10133000879577956795B795F111F8CFFAF4BB0FBC
:1013400011F460FF1BC06F5F7F4F8F4F9F4F16C020
:10135000882311F096E911C0772321F09EE8872FAA
:10136000762F05C0662371F096E8862F70E060E066
:101370002AF09A95660F771F881FDAF7880F9695DF
:10138000879597F9089597F99F6780E870E060E086
:1013900008959FEF80EC089500240A94161617060E
:1013A00018060906089500240A9412161306140656
:1013B00005060895092E0394000C11F4882352F0B9
:1013C000BB0F40F4BF2B11F460FF04C06F5F7F4F71
:1013D0008F4F9F4F089557FD9058440F551F59F058
:1013E0005F3F71F04795880F97FB991F61F09F3F12
:1013F00079F087950895121613061406551FF2CF3B
:101400004695F1DF08C0161617061806991FF1CF8A
:1014100086957105610508940895E894BB276627B1
:101420007727CB0197F9089519F416F40C94C9099C
:101430000C945A0A0E94F309B8F39923C9F3B6F33E
:101440009F57550B87FF0E94680A0024A0E640EAD8
:10145000900180585695979528F4805C660F771F09
:10146000881F20F026173707480730F4621B730BDC
:10147000840B202931294A2BA695179407942025FF
:1014800031254A2758F7660F771F881F20F0261747
:101490003707480730F4620B730B840B200D311DA6
:1014A000411DA09581F7B901842F9158880F969519
:1014B000879508959F3F31F0915020F48795779557
:1014C0006795B795880F911D9695879597F908951B
:1014D00091505040660F771F881FD2F70895DB01A7
:1014E0008F939F930E94CF0ABF91AF91A29F800DCF
:1014F000911DA39F900DB29F900D11240895A1E21C
:101500001A2EAA1BBB1BFD010DC0AA1FBB1FEE1F7D
:10151000FF1FA217B307E407F50720F0A21BB30BC8
:10152000E40BF50B661F771F881F991F1A9469F744
:1015300060957095809590959B01AC01BD01CF01A0
:101540000895052E97FB1EF400940E94B80A57FDDB
:1015500007D00E947F0A07FC03D04EF40C94B80A0F
:1015600050954095309521953F4F4F4F5F4F0895CF
:1015700090958095709561957F4F8F4F9F4F0895FF
:10158000A29FB001B39FC001A39F700D811D1124C4
:10159000911DB29F700D811D1124911D08950E940F
:1015A000C00AA59F900DB49F900DA49F800D911D22
:0815B00011240895F894FFCF07
:1015B80001010201040105010601160103011401DC
:1015C800130109010A010B011E011F010800100186
:1015D8001101000003000700566F6C746167653ADB
:1015E8002000526D732043757272656E74006D41F0
:0A15F80000506F7765723A20000082
:00000001FF
